:100000000C9462000C94740D0C944D0D0C948A00A9
:100010000C948A000C948A000C948A000C948A0038
:100020000C948A000C948A000C948A000C948A0028
:100030000C948A000C948A000C948A000C948A0018
:100040000C94030D0C948A000C94D10C0C94AB0C02
:100050000C948A000C948A000C948A000C948A00F8
:100060000C949B0D0C948A000000000024002700D3
:100070002A0000000000250028002B0000000008D6
:10008000000201000003040700000000000000005F
:10009000010204081020408001020408102001021F
:1000A000040810200000000023002600290004049A
:1000B0000404040404040202020202020303030310
:1000C0000303BA0E11241FBECFEFD8E0DEBFCDBFB1
:1000D00024E0AEE4B2E001C01D92AA35B207E1F718
:1000E00012E0A0E0B1E0ECEEFBE202C005900D9260
:1000F000AE34B107D9F710E0C2E6D0E004C02197D2
:10010000FE010E942812C136D107C9F70E94EC0FE8
:100110000C94F4150C940000E7E2F3E0A089B18997
:1001200082E08C93A485B5851C92A685B78580E175
:100130008C93108EA489B58986E08C93A289B389AB
:100140008C9180618C93A289B3898C9188608C9307
:10015000A289B3898C9180688C930288F389E02D01
:1001600080818F7D80830895AF92BF92CF92DF927E
:10017000EF92FF920F931F93CF93DF936C017B015C
:100180008B01040F151FEB015E01AE18BF08C017ED
:10019000D10759F06991D601ED91FC910190F08160
:1001A000E02DC6010995892B79F7C501DF91CF9123
:1001B0001F910F91FF90EF90DF90CF90BF90AF9085
:1001C0000895089508950895FC01538D448D252FB9
:1001D00030E0842F90E0821B930B541710F0CF96E1
:1001E000089501970895FC01918D828D981761F013
:1001F000A28DAE0FBF2FB11D5D968C91928D9F5F2A
:100200009F73928F90E008958FEF9FEF0895FC0108
:10021000918D828D981731F0828DE80FF11D858DBB
:1002200090E008958FEF9FEF0895FC01918D228D4E
:10023000892F90E0805C9F4F821B91098F739927D3
:10024000089587E293E00E94150121E0892B09F4CB
:1002500020E0822F089580E090E0892B29F00E9411
:10026000210181110C9400000895FC01A48DA80FB8
:10027000B92FB11DA35ABF4F2C91848D90E00196E8
:100280008F739927848FA689B7892C93A089B18908
:100290008C91837080648C93938D848D981306C0A9
:1002A0000288F389E02D80818F7D80830895EF920D
:1002B000FF920F931F93CF93DF93EC0181E0888F20
:1002C0009B8D8C8D98131AC0E889F989808185FFF0
:1002D00015C09FB7F894EE89FF896083E889F98992
:1002E00080818370806480839FBF81E090E0DF9194
:1002F000CF911F910F91FF90EF900895F62E0B8DE7
:1003000010E00F5F1F4F0F731127E02E8C8D8E11A1
:100310000CC00FB607FCFACFE889F989808185FF08
:10032000F5CFCE010E943501F1CFEB8DEC0FFD2F03
:10033000F11DE35AFF4FF0829FB7F8940B8FEA89C3
:10034000FB8980818062CFCFCF93DF93EC01888DD2
:100350008823B9F0AA89BB89E889F9898C9185FD40
:1003600003C0808186FD0DC00FB607FCF7CF8C91CE
:1003700085FFF2CF808185FFEDCFCE010E94350150
:10038000E9CFDF91CF910895833081F028F4813057
:1003900099F08230A9F008958730A9F08830C9F02B
:1003A0008430B1F4809180008F7D03C08091800003
:1003B0008F7780938000089584B58F7784BD0895EA
:1003C00084B58F7DFBCF8091B0008F778093B00094
:1003D00008958091B0008F7DF9CFCF93DF93282FC0
:1003E00030E0F901E458FF4F8491F901E057FF4FE5
:1003F000D491F901E255FF4FC491CC23A1F08111B2
:100400000E94C401EC2FF0E0EE0FFF1FEC55FF4FF0
:10041000A591B491EC91ED2381E090E009F480E0A6
:10042000DF91CF91089580E090E0FACFFC018485C0
:100430000E94ED010895FC0185850E94ED0108955B
:100440001F93CF93DF93282F30E0F901E458FF4F3B
:100450008491F901E057FF4FD491F901E255FF4F24
:10046000C491CC23A9F0162F81110E94C401EC2F56
:10047000F0E0EE0FFF1FEE58FF4FA591B4918FB73C
:10048000F894EC91111108C0D095DE23DC938FBF56
:10049000DF91CF911F910895DE2BF8CFCF93DF939B
:1004A00090E0FC01E057FF4F249182559F4FFC01E3
:1004B00084918823C9F090E0880F991FFC01E859C6
:1004C000FF4FA591B491FC01EE58FF4FC591D49117
:1004D00061110DC09FB7F8948C91209582238C9365
:1004E0008881282328839FBFDF91CF9108956230B0
:1004F00051F49FB7F8943C91822F809583238C937D
:10050000E8812E2BEFCF8FB7F894EC912E2B2C9304
:100510008FBFEACFCF93DF93FC01C485DFB7F89498
:1005200060E08C2F0E94200261E08C2F0E944E021E
:10053000DFBFDF91CF910895FC01668584850C941F
:100540004E02CF93DF93FC01C585DFB7F89460E0DE
:100550008C2F0E94200261E08C2F0E944E02DFBF90
:10056000DF91CF910895FC01668585850C944E023C
:100570003FB7F8948091090390910A03A0910B036F
:10058000B0910C0326B5A89B05C02F3F19F001962A
:10059000A11DB11D3FBFBA2FA92F982F8827BC01DD
:1005A000CD01620F711D811D911D42E0660F771F05
:1005B000881F991F4A95D1F708958F929F92AF9205
:1005C000BF92CF92DF92EF92FF924B015C010E94AB
:1005D000B8026B017C010E94B8026C197D098E097A
:1005E0009F09683E734081059105A8F321E0821AB6
:1005F0009108A108B10888EEC80E83E0D81EE11C5E
:10060000F11C81149104A104B10429F7FF90EF902B
:10061000DF90CF90BF90AF909F908F9008952FB7AD
:10062000F8946091050370910603809107039091FF
:1006300008032FBF08958F929F92AF92BF92CF92DF
:10064000DF92EF92FF926B017C010E940F034B013E
:100650005C01C80CD91CEA1CFB1C0E940F03681526
:1006600079058A059B0528F0C616D706E806F9061F
:10067000A0F7FF90EF90DF90CF90BF90AF909F904A
:100680008F900895CF92DF92EF92FF920F931F9376
:10069000811123C00E940F030091D2031091D30354
:1006A0002091D4033091D503DC01CB01801B910B49
:1006B000A20BB30B82339105A105B10570F402E3DF
:1006C00010E020E030E068017901C81AD90AEA0A8E
:1006D000FB0AC701B6010E941B030E940F0360932F
:1006E000D2037093D3038093D4039093D50381E016
:1006F0001F910F91FF90EF90DF90CF900895089594
:10070000DC015596EC91559756968C915697E817C3
:1007100048F452968D919C91E80FF92FF11D80813C
:1007200090E008958FEF9FEF0895DC015596EC91CE
:10073000559756968C915697E81770F452968D916E
:100740009C91539721E02E0F55962C93E80FF92F8B
:10075000F11D808190E008958FEF9FEF0895CF9273
:10076000DF92EF92FF920F931F93CF93DF936C0171
:10077000EB017B01E40EF51E10E000E0CE15DF0575
:1007800061F06991D601ED91FC910190F081E02D2D
:10079000C6010995080F191FF1CFC801DF91CF914C
:1007A0001F910F91FF90EF90DF90CF900895DC01A3
:1007B0005B96EC915B975A968C915A97E81748F0A4
:1007C00081E090E013969C938E93129790E080E0E6
:1007D000089558968D919C91599721E02E0F5B9624
:1007E0002C93E80FF92FF11D608381E090E00895CC
:1007F000FC0186899589891B990B089508958F922C
:100800009F92AF92BF92CF92DF92EF92FF920F939F
:100810001F93CF93DF938C01FC0186818130A9F572
:10082000862F90E0EC01D695DC2FCC27D795C79585
:10083000661F6627661F6C2BEC0135E0CC0FDD1FB1
:100840003A95E1F7C0746C2BEC0143E0CC0FDD1F4F
:100850004A95E1F7C0726C2BEC01CC0FDD1FC07123
:100860006C2BEC01D595C795C8706C2BEC01E3E0BF
:10087000D595C795EA95E1F7C4706C2BF5E0959591
:100880008795FA95E1F78270682BF801E280E6948B
:1008900091E080E02181211101C090E0C92ED82E85
:1008A000B12CA12CF12CC62FD0E0F8018081882337
:1008B00069F0F1E0CF266C2DF80185810E942002BD
:1008C00080E08E1518F400008F5FFBCFBE010A2C6C
:1008D00002C0759567950A94E2F76170F80184810A
:1008E0000E94200280E08E1518F400008F5FFBCF7D
:1008F0004601F1E08F26682DF80185810E942002D3
:10090000F80183810E94ED01F8019681913041F454
:10091000FF0CF82A80E08E1540F400008F5FFBCFBB
:10092000879588278795F694F4CFF80180818823EE
:10093000B9F06401FFEFAF1ABF0A28E0A216B104B4
:1009400009F0B3CF8F2DDF91CF911F910F91FF90C1
:10095000EF90DF90CF90BF90AF909F908F900895D1
:100960006C2D85810E942002E5CF20919302260FF5
:100970003327331F21323105ECF42091DC02FC01D6
:1009800090E080E0243069F082E00895A091930225
:100990002191AC014D585D4FA40FB52FB11D2C9383
:1009A0000196861798F380919302680F60939302E3
:1009B00080E0089581E008951092DC0281E0809348
:1009C000DB021092B60261E082E10E94200261E047
:1009D00083E10E942002E9EBF0E080818E7F80833A
:1009E00080818D7F808388E48093B80085E4809344
:1009F000BC000895CF93DF9391E090937202882317
:100A0000B9F0C091B800D091BA008091BC008A7B47
:100A10008093BC0060E082E10E94200260E083E1FC
:100A20000E9420020E94DC04D093BA00C093B80058
:100A3000DF91CF910895E091140380911303E8179B
:100A400030F4F0E0EE5AFD4F808190E008958FEF92
:100A50009FEF089590911403809113032FEF3FEFC0
:100A6000981748F4E92FF0E0EE5AFD4F208130E06E
:100A70009F5F90931403C90108958091130390918F
:100A80001403891B990B0895CF92DF92EF92FF9286
:100A90000F931F93CF93DF937C01CB018A012091A9
:100AA000E202222389F0EB016B01C40ED51ECC15A6
:100AB000DD0569F06991D701ED91FC910190F0811C
:100AC000E02DC7010995F3CF642F0E94B504C8013A
:100AD000DF91CF911F910F91FF90EF90DF90CF901A
:100AE0000895CF93DF931F92CDB7DEB7698320912E
:100AF000E2022223F9F020911103203258F021E084
:100B000030E0FC013383228390E080E00F90DF919E
:100B1000CF91089580911203E82FF0E0ED51FD4F41
:100B2000998190838F5F809312038093110381E0FA
:100B300090E0ECCF61E0CE0101960E94B504F7CFC2
:100B4000CF92DF92EF92FF920F931F93CF93DF9399
:100B5000FC01C48121E02093E202C09303031092C0
:100B60001203109211038385682B84EC93E00E949A
:100B70007105D0911103D13208F092C00E94B802E1
:100B80006B017C018091DC02811165C082E0809361
:100B9000DC0281E08093DB028FEF8093DA02109217
:100BA000D902D093D802A3EEB2E0E8EBF2E080E005
:100BB000D81385C01092B7028091B702CC0FC82B12
:100BC000C093B7028091B602813009F07CC01092C8
:100BD000B6020E94B8026B017C018091B70280933B
:100BE000BB008091DE029091DF02A091E002B09103
:100BF000E102892B8A2B8B2B99F00E94B80200917D
:100C0000DE021091DF022091E0023091E1026C19C6
:100C10007D098E099F090617170728073907E0F194
:100C20008091BC0083FDD9CF85EC8093BC000E94ED
:100C3000B8026B017C018091DC02823009F445C06E
:100C40008091DA028F3F61F18091DA02803241F1C6
:100C50008091DA0225C08091DE029091DF02A0919E
:100C6000E002B091E102892B8A2B8B2B09F48ACF09
:100C70000E94B8020091DE021091DF022091E00292
:100C80003091E1026C197D098E099F09061717073B
:100C90002807390708F076CF8091DD020E94FA0418
:100CA00010921203109211031092E202DF91CF9181
:100CB0001F910F91FF90EF90DF90CF9008959D913D
:100CC00091938F5F75CF85EEB0CF8091DE029091CA
:100CD000DF02A091E002B091E102892B8A2B8B2BDD
:100CE00009F4A9CF0E94B8020091DE021091DF0240
:100CF0002091E0023091E1026C197D098E099F0973
:100D0000061717072807390708F095CFC5CF90E0D9
:100D100080E008950F931F93CF93DF93EC018D81B3
:100D20009E8182309105E1F083309105C1F1892BDC
:100D300029F48C810E94ED01892B11F080E00BC019
:100D400082E090E09E838D830E940F036883798305
:100D50008A839B8381E0DF91CF911F910F9108954A
:100D60008C810E94ED01892B49F30E940F030881B9
:100D700019812A813B81601B710B820B930B6932B5
:100D8000710581059105D0F283E090E09E838D830B
:100D90000E940F03688379838A839B83CFCF8C81E2
:100DA0000E94ED01892B51F20E940F0308811981E5
:100DB0002A813B81601B710B820B930B6932710599
:100DC0008105910508F4BACF1E821D82B7CF81E458
:100DD00080937C0080917A00806480937A00809177
:100DE0007A0086FDFCCF8091780090917900FB011C
:100DF00091838083938382830895CF93DF93C5E1AA
:100E0000D3E0E991F991309731F06EE472E085E139
:100E100093E00995F6CFDF91CF9108950F931F933B
:100E2000CF93DF938C01D62FC72F60E0FC01848124
:100E30000E9420026C2F61706E5FF80182819381A5
:100E40000E94FF036D2FF801828193810E94FF03AE
:100E500061E0F8018481DF91CF911F910F910C9493
:100E60002002CF93DF93EC0161E08C810E944E025F
:100E700061E08C810E942002EA81FB8180E2828312
:100E8000118281E0808360E085810E9420020A80D7
:100E9000DB81C02D61E08C810E944E0260E08B817D
:100EA0000E944E0261E08D81DF91CF910C944E0241
:100EB000DC01ED91FD918081ED91FD919081ED91AD
:100EC000FD916C9163708E2309F064609F2309F09B
:100ED0006860E5E7F7E0E60FF11D659565956D93B0
:100EE0006D917D918D919D91099423C01AC012C07E
:100EF00016C010C01EC009C014C013C006C019C05F
:100F000009C00DC007C00DC014C0625070408040C1
:100F100090400BC0615070408040904006C06E5FB2
:100F200001C06F5F7F4F8F4F9F4F9E938E937E9335
:100F30006E93089580911604909117040C945807AD
:100F400080911804909119040C9458078F929F92E5
:100F5000AF92BF92CF92DF92EF92FF920F931F93C7
:100F6000CF93DF93EC0108811981F80183858230EA
:100F7000D8F4F894C8010E945807F801C780D084BB
:100F8000E184F28478948E889F88A88CB98C0E9422
:100F90000F03681579058A059B0540F4CA8ADB8A28
:100FA000EC8AFD8A80E07EC0F894E7CF4A895B89AD
:100FB0006C897D894C155D056E057F0599F38889DF
:100FC000998997018601041B150B260B370BB90174
:100FD000A80177FF03C0919581959109092E000C16
:100FE000AA0BBB0B4C815D816E817F81840F951FA5
:100FF000A61FB71F0C851D852E853F854885598501
:101000006A857B8580179107A207B3074CF48A8D08
:101010009B8D019779F44C835D836E837F830EC033
:10102000481759076A077B070CF049C08A8D9B8DCA
:10103000019789F70C831D832E833F838C819D81CB
:10104000AE81BF8180179107A207B30724F40C83F8
:101050001D832E833F838C819D81AE81BF81481784
:1010600059076A077B0724F44C835D836E837F8373
:10107000EA81FB818C819D81AE81BF8180839183D8
:10108000A283B383CA8ADB8AEC8AFD8A0E940F039B
:101090002C8D620F711D811D911D6E8B7F8B888F32
:1010A000998F81E0DF91CF911F910F91FF90EF9089
:1010B000DF90CF90BF90AF909F908F9008958C83DA
:1010C0009D83AE83BF83BACF0F931F93CF938C01C1
:1010D000C62F0E94A0056C2F6460C8010E94A00565
:1010E0006C2F6B7FC8010E94A00583EC90E00197F4
:1010F000F1F7CF911F910F9108950F931F93CF9305
:10110000DF938C01D62FC42F607F642B0E9464086C
:1011100080E1D89FB00111246C2BC801DF91CF91E1
:101120001F910F910C946408CF93DF93CDB7DEB776
:1011300028970FB6F894DEBF0FBECDBF28E0E4E5D8
:10114000F1E0DE01119601900D922A95E1F7FC0184
:101150002085211118C02FEF30E0220F331F41E00E
:1011600050E04C0F5D1F240F351FF901608160684E
:1011700040E028960FB6F894DEBF0FBECDBFDF91DA
:10118000CF910C947D0821E0E7CF40E061E00E9420
:101190007D088BE39FE10197F1F7089541E00E94FC
:1011A0007D0881E090E00895EF92FF920F931F93E6
:1011B000CF93DF9300D000D0CDB7DEB787E293E0C6
:1011C0000E9407018436C9F587E293E00E94F3008C
:1011D00087E293E00E94F3008E010F5F1F4F7801BA
:1011E0008A3341F0F80181938F0187E293E00E94F6
:1011F000F300F6CFC7010E948111182F87E293E018
:101200000E94F3008053990B8230910520F4682FDF
:10121000812F0E94200287E293E00E94F3008A302F
:1012200011F08D30C1F787E293E00E9407018A3008
:1012300021F487E293E00E94F3000F900F900F904B
:101240000F90DF91CF911F910F91FF90EF90089534
:10125000FB0101900020E9F73197AF01461B570BC6
:10126000DC01ED91FC910280F381E02D09948F92D5
:101270009F92AF92BF920F931F93CF93DF93CDB7FF
:10128000DEB7A1970FB6F894DEBF0FBECDBF19A28F
:10129000423008F44AE08E010F5D1F4F842E912CDE
:1012A000B12CA12CA50194010E94A711E62FB90130
:1012B000CA01EA3004F5E05DD801EE938D01232BDD
:1012C000242B252B79F790E080E0109729F0BD01C1
:1012D00087E293E00E942809A1960FB6F894DEBF3A
:1012E0000FBECDBFDF91CF911F910F91BF90AF90F7
:1012F0009F908F900895E95CDFCF6115710511F023
:101300000C94280990E080E00895CF92DF92EF924C
:10131000FF92CF93DF93C82F0E940F036B017C01D4
:1013200068EA71E087E293E00E947D096C2F70E02B
:1013300090E080E04AE00E9437096FEA71E087E2BE
:1013400093E00E947D094AE0C701B6010E94370977
:1013500061EB71E087E293E00E947D09C0EDD3E08C
:101360008E819F81A885B985A7019601281B390B1D
:101370004A0B5B0BCA01B9014AE00E94370961EBD5
:1013800071E087E293E00E947D096E817F8188850C
:101390009985CA84DB84EC84FD846C197D098E09EF
:1013A0009F094AE0DF91CF91FF90EF90DF90CF90BF
:1013B0000C943709CF93DF93EC01ED81FE8180819E
:1013C00091810E94940889819A8126E0289FF001EA
:1013D000299FF00D1124EC0FFD1F67817085ED81B1
:1013E000FE8180819181DF91CF910C947D090F93D3
:1013F0001F93CF93DF938C01DC011596ED91FC9147
:10140000808191810E94C508D8011596ED91FC91CB
:10141000C281D381F80181918150990B092E000C72
:10142000AA0BBB0BFB83EA83F801418152816381E4
:1014300074814C835D836E837F8388879987AA87B5
:10144000BB871C861D861E861F8681E090E0998BD7
:10145000888B1A8A1B8A1C8A1D8A1E8A1F8A188EEC
:10146000198E9B8F8A8F0E940F032C8D620F711D26
:10147000811D911D6E8B7F8B888F998FD80115965A
:10148000ED91FC910280F381E02D88EC848FC801FE
:10149000DF91CF911F910F910C94DA09CF92DF92D7
:1014A000EF92FF920F931F93CF93DF93EC018B0189
:1014B00060E08C810E94200284EF91E0A0E0B0E027
:1014C0008093DE039093DF03A093E003B093E103E6
:1014D0001092E2031092E3031092E4031092E503EA
:1014E0008091D6039091D703A091D803B091D903EE
:1014F0008093DA039093DB03A093DC03B093DD03C6
:101500000E940F036093D6037093D7038093D80390
:101510009093D9030E94D40880E00E94420388235C
:1015200071F181E00E94850963EB71E087E293E04D
:101530000E947D096801012E000CEE08FF084AE0B8
:10154000C701B601F7FE0DC06DE287E293E00E948D
:10155000570166277727CB016C197D098E099F09F2
:101560004AE00E94370965EB71E087E293E00E9450
:1015700028096CEB71E087E293E00E94280965E09E
:1015800070E080E090E00E941B030E94D4080E945B
:101590000F036093D6037093D7038093D80390937F
:1015A000D903612F61708A819B810E94FF03602FA4
:1015B0008A819B810E94FF0361E08C81DF91CF9142
:1015C0001F910F91FF90EF90DF90CF900C9420022D
:1015D000CF92DF92EF92FF920F931F93CF93DF93FF
:1015E000EC0119821A821B821C820E94F7098091E9
:1015F0002303909124030E948A06811195C084EFF1
:10160000C82EDD24D394E12CF12C16E0ED81FE816F
:10161000848195810E948A06082FED81FE81828156
:101620009381FC0122813381232B39F00E94A6078C
:10163000882319F0CE010E94DA09002339F3C09201
:10164000DE03D092DF03E092E003F092E103109218
:10165000E2031092E3031092E4031092E5038091F9
:10166000D6039091D703A091D803B091D90380936A
:10167000DA039093DB03A093DC03B093DD030E94B5
:101680000F036093D6037093D7038093D80390938E
:10169000D9030E94D40880E00E944203882379F095
:1016A00083E00E94850965EB71E087E293E00E9488
:1016B00028096CEB71E087E293E00E94280965E05D
:1016C00070E080E090E00E941B030E94D4080E941A
:1016D0000F036093D6037093D7038093D80390933E
:1016E000D90349815A816B817C81888190E0B0E087
:1016F000A0E0481759076A077B0708F087CF149FB7
:10170000D001159FB00D1124AC0FBD1F1996ED919E
:10171000FC911A97309759F01B968D919C910995E1
:10172000CE010E94F70972CF0E94FD0660CFDF91C3
:10173000CF911F910F91FF90EF90DF90CF90089580
:1017400085ED8093BC008091DE029091DF02A09134
:10175000E002B091E1020796A11DB11D23E0B6950C
:10176000A795979587952A95D1F72091BC0024FDE0
:1017700003C01092DC0208954091DE025091DF0216
:101780006091E0027091E102452B462B472B69F3F3
:101790000097A105B10541F02AE22A95F1F700C0B2
:1017A0000197A109B109E1CF8091DD020C94FA04FF
:1017B0000F931F93CF93DF93CDB7DEB762970FB62A
:1017C000F894DEBF0FBECDBF8C01085E1340809140
:1017D0001F03909120030E949408C8016AE070E002
:1017E0000E94001297FF03C09195819591099C0179
:1017F000C8010A30110534F06AE070E00E9400125E
:1018000080E207C066EF7FEF0E9400128DE217FFB3
:10181000F7CF3F932F937F936F931F928F938FEB0D
:1018200091E09F938F938E010F5F1F4F1F930F9334
:101830000E945313B80180911F03909120030E94CE
:101840007D090FB6F894DEBF0FBECDBF62960FB60E
:10185000F894DEBF0FBECDBFDF91CF911F910F91E6
:1018600008950F931F93CF93DF9300D000D0CDB78F
:10187000DEB780911F03909120030E94C50888EE77
:1018800093E0A0E0B0E089839A83AB83BC830091AE
:101890002103109122039E012F5F3F4FF8013383F4
:1018A000228384839583A683B78380ED97E0A0E0AD
:1018B000B0E080879187A287B38714861586168645
:1018C000178681E090E0918B808B128A138A148AAC
:1018D000158A168A178A108E118E138E128E0E9408
:1018E0000F03F801248D620F711D811D911D668B00
:1018F000778B808F918F65ED71E080911F039091C0
:1019000020030E947D0989819A810E94D80B8091D1
:10191000210390912203FC0122813381232B41F08A
:101920000E94A607882321F089819A810E94D80B02
:101930000E94FD0680912303909124030E948A0651
:10194000882329F30F900F900F900F90DF91CF9184
:101950001F910F9108951F920F920FB60F921124AD
:101960002F933F934F935F936F937F938F939F93A7
:10197000AF93BF93EF93FF9387E293E00E9435010B
:10198000FF91EF91BF91AF919F918F917F916F9157
:101990005F914F913F912F910F900FBE0F901F902D
:1019A00018951F920F920FB60F9211242F938F93B9
:1019B0009F93EF93FF93E0913703F0913803808179
:1019C000E0913D03F0913E0382FD1BC09081809128
:1019D00040038F5F8F7320914103821741F0E091A4
:1019E0004003F0E0E95DFC4F958F80934003FF9149
:1019F000EF919F918F912F910F900FBE0F901F909D
:101A000018958081F4CF1F920F920FB60F92112478
:101A10002F933F938F939F93AF93BF938091050331
:101A200090910603A0910703B0910803309104033D
:101A300023E0230F2D3758F50196A11DB11D2093EA
:101A400004038093050390930603A0930703B093C8
:101A500008038091090390910A03A0910B03B091B0
:101A60000C030196A11DB11D8093090390930A03F5
:101A7000A0930B03B0930C03BF91AF919F918F91F3
:101A80003F912F910F900FBE0F901F90189526E851
:101A9000230F0296A11DB11DD2CF1F920F920FB638
:101AA0000F9211242F933F934F935F936F937F93E4
:101AB0008F939F93AF93BF93EF93FF93E091270191
:101AC000F09128010995FF91EF91BF91AF919F91FE
:101AD0008F917F916F915F914F913F912F910F90D7
:101AE0000FBE0F901F9018951F920F920FB60F9276
:101AF00011242F933F934F935F936F937F938F9313
:101B00009F93AF93BF93EF93FF93E0912501F091E3
:101B100026010995FF91EF91BF91AF919F918F9110
:101B20007F916F915F914F913F912F910F900FBED9
:101B30000F901F9018951F920F920FB60F921124BD
:101B40002F933F934F935F936F937F938F939F93C5
:101B5000AF93BF93EF93FF938091B900887F803656
:101B600009F44AC0F0F5883209F4A7C018F58031AD
:101B700009F49BC0B8F4882309F4F9C0883009F44B
:101B800094C0FF91EF91BF91AF919F918F917F9101
:101B90006F915F914F913F912F910F900FBE0F90DA
:101BA0001F901895883109F488C0803251F78093CE
:101BB000DA0214C0803409F49DC040F48033B9F3D4
:101BC0008833F9F68093DA0285ECB0C0803509F4E9
:101BD00085C0883509F496C0883499F60E94A00B18
:101BE000D0CF883909F48CC038F5883729F050F403
:101BF000883611F0803729F683E08093DC0210925A
:101C0000B50257C0883809F47BC0803919F0803894
:101C100009F0B7CF8091B502803208F071C0E09131
:101C2000B50281E08E0F8093B5028091BB00F0E099
:101C3000EB56FD4F80833DC0803B39F0E0F4803AA5
:101C400009F479C0883A09F09CCF84E08093DC02E3
:101C50001092940210929302E0910F03F0911003FE
:101C600009958091930281110FC081E080939302C6
:101C70001092730209C0803C09F4A6CF883C09F495
:101C8000A3CF883B09F07DCFE091940281E08E0FD5
:101C900080939402F0E0ED58FD4F80818093BB006B
:101CA000909194028091930229C08091B702809311
:101CB000BB0085EC8093BC0064CF9091D9028091E9
:101CC000D802981758F5E091D90281E08E0F8093E1
:101CD000D902F0E0E854FD4F8081E9CFE091D902CC
:101CE00081E08E0F8093D9028091BB00F0E0E85430
:101CF000FD4F80839091D9028091D8029817C8F245
:101D000085E8D8CFE091D90281E08E0F8093D90287
:101D10008091BB00F0E0E854FD4F80838091DB02AE
:101D200081115CCF81E08093B60284EA8093BC008D
:101D30001092DC0226CF85EC8093BC001092DC026E
:101D40008091B502803230F4E091B502F0E0EB56BC
:101D5000FD4F10826091B50270E0E0910D03F091AB
:101D60000E0385E992E009951092B5020ACF109210
:101D7000DA0234CFCF93DF9310922A031092290313
:101D800088EE93E0A0E0B0E080932B0390932C03C7
:101D9000A0932D03B0932E0326E731E03093280360
:101DA0002093270325EC30E0309334032093330352
:101DB00024EC30E0309336032093350320EC30E000
:101DC000309338032093370321EC30E030933A030B
:101DD0002093390322EC30E030933C0320933B0303
:101DE00026EC30E030933E0320933D0310924003F5
:101DF0001092410310924203109243031092C703C2
:101E00001092C6038093C8039093C903A093CA039A
:101E1000B093CB0328E831E03093C5032093C4038B
:101E20001092D6031092D7031092D8031092D903C0
:101E30001092DA031092DB031092DC031092DD03A0
:101E40001092DE031092DF031092E0031092E10380
:101E50001092E2031092E3031092E4031092E50360
:101E600029E0209353042AE0209352043DE030936C
:101E7000540432E03093510410924F0410925004F5
:101E800031E0309355041092290410922804809375
:101E90002A0490932B04A0932C04B0932D048AE978
:101EA00091E0909327048093260485E08093320488
:101EB00086E080933304109234042093350484E642
:101EC00090E0909337048093360410923904109276
:101ED000380410923A0410923B0410923C0488E0BB
:101EE00080933D0410923F0410923E0410924004EF
:101EF00010924104109242048AE892E090934404C4
:101F0000809343048CE992E09093460480934504C7
:101F100081EA92E0909348048093470483EB92E037
:101F200090934A048093490486E192E090934C0494
:101F300080934B048BE192E090934E0480934D0488
:101F400062E085E00E944E0262E084E00E944E0260
:101F5000E3EBF0E0E491F0E0EE0FFF1FEC55FF4FF4
:101F6000A591B491B0931B04A0931A04E5E9F0E0A5
:101F7000449140931E04E2EBF0E0E491F0E0EE0FB8
:101F8000FF1FEC55FF4FC591D491D0931D04C09312
:101F90001C04E4E9F0E0E491E0931F0410922104B2
:101FA0001092220410922304109224042BE33FE1A8
:101FB000C9010197F1F79C91842F892391E009F4DD
:101FC00090E08881E82309F09260909320041092B9
:101FD0002504DF91CF910895789484B5826084BD03
:101FE00084B5816084BD85B5826085BD85B581601D
:101FF00085BD80916E00816080936E00109281009B
:102000008091810082608093810080918100816055
:102010008093810080918000816080938000809116
:10202000B10084608093B1008091B00081608093A2
:10203000B00080917A00846080937A0080917A0069
:10204000826080937A0080917A00816080937A0028
:1020500080917A00806880937A001092C10010927B
:10206000120410921304109214041092150410928A
:10207000D2031092D3031092D4031092D50368EBCD
:102080007BE080E090E00E941B0368EE73E080E05C
:1020900090E00E94DD020E948C000E940F0360937A
:1020A000D2037093D3038093D4039093D50366EE49
:1020B00071E087E293E00E947D096AE070E080E0D1
:1020C00090E00E941B0381E08093E6030E940F03CF
:1020D0006093D2037093D3038093D4039093D5037A
:1020E00067EF71E087E293E00E947D090E948C0017
:1020F00061E089E00E944E0261E089E00E942002D6
:1021000086E090E00E942E1220E631E0DC0111967C
:102110003C932E932FE434E013963C932E93129726
:102120002BE030E015963C932E9314970E943107D4
:102130008CE090E00E942E12EC011B821A828AE64B
:1021400091E09983888387E28C8380E1898782E0AC
:102150008A871B86D0932603C0932503109214030D
:102160001092130310921203109211030E94DC04C8
:1021700081EE90E09093100380930F0382EE90E045
:1021800090930E0380930D031D828A85823010F098
:1021900098E09D83888762E370E080E090E00E9491
:1021A000DD026B85CE010E94A00568EE73E080E041
:1021B00090E00E94DD0260E3CE010E9464080BE41F
:1021C00016E4C8010197F1F760E3CE010E946408AC
:1021D000C8010197F1F760E3CE010E94640883E52E
:1021E00092E00197F1F760E2CE010E9464086D81F0
:1021F000606240E0CE010E947D0884E08E8340E072
:102200006CE0CE010E947D08CE010E94C50882E0EC
:102210008F8340E066E0CE010E947D0840E062E0EE
:10222000CE010E947D088BE39FE10197F1F788E0E2
:102230008B8760E0CE010E94A005CE010E94C508F8
:102240006EEF71E0CE010E947D0987E090E00E9470
:102250002E12EC01909324038093230386E08C8359
:1022600062E00E944E021E821D828DE190E00E947B
:102270002E12EC018AE194E0998388831B821A82F2
:102280008AE08C8F00ED17E0809125048230B8F54C
:10229000F8948AE194E00E9458077894015011095B
:1022A00099F7D0932203C093210380912503909145
:1022B00026039093200380931F03E7E1F3E088E077
:1022C000DF011D928A95E9F787EE96E09093160359
:1022D00080931503C0E0D0E089E291E00E94E80A13
:1022E00062E370E080E090E00E94DD022097A1F3BD
:1022F0000E942101882381F30E940000EDCFF89411
:10230000CCCFFC0188279927E89421912032E9F36A
:10231000293010F02E30C8F32B3241F02D3239F431
:10232000689404C00E949F11820F911D2191205337
:102330002A30C0F31EF4909581959F4F08957AE05E
:10234000979F902D879F802D910D11240895A1E2D4
:102350001A2EAA1BBB1BFD010DC0AA1FBB1FEE1F1F
:10236000FF1FA217B307E407F50720F0A21BB30B6A
:10237000E40BF50B661F771F881F991F1A9469F7E6
:1023800060957095809590959B01AC01BD01CF0142
:1023900008952F923F924F925F926F927F928F9209
:1023A0009F92AF92BF92CF92DF92EF92FF920F93E4
:1023B0001F93CF93DF93CDB7DEB7CA1BDB0B0FB6EE
:1023C000F894DEBF0FBECDBF09942A8839884888AB
:1023D0005F846E847D848C849B84AA84B984C88441
:1023E000DF80EE80FD800C811B81AA81B981CE0F38
:1023F000D11D0FB6F894DEBF0FBECDBFED0108951D
:1024000097FB072E16F4009407D077FD09D00E94A1
:10241000141207FC05D03EF4909581959F4F0895C6
:10242000709561957F4F0895AA1BBB1B51E107C0B2
:10243000AA1FBB1FA617B70710F0A61BB70B881F54
:10244000991F5A95A9F780959095BC01CD010895E3
:10245000EE0FFF1F0590F491E02D09940F931F9349
:10246000CF93DF938230910510F482E090E0E09109
:102470005804F091590430E020E0B0E0A0E030973B
:1024800099F42115310509F44AC0281B390B243071
:102490003105D8F58A819B816115710589F1FB01B0
:1024A00093838283FE0111C0408151810281138197
:1024B00048175907E0F04817590799F4109761F049
:1024C00012960C93129713961C933296CF01DF91BC
:1024D000CF911F910F9108950093580410935904C0
:1024E000F4CF2115310551F04217530738F0A901F7
:1024F000DB019A01BD01DF01F801C1CFEF01F9CF86
:102500009093590480935804CDCFFE01E20FF31F3E
:10251000819391932250310939832883D7CF209119
:10252000560430915704232B41F4209150013091EF
:102530005101309357042093560420914E0130915D
:102540004F012115310541F42DB73EB7409152019D
:1025500050915301241B350BE0915604F091570420
:10256000E217F307A0F42E1B3F0B2817390778F06A
:10257000AC014E5F5F4F2417350748F04E0F5F1FC9
:102580005093570440935604819391939FCFF0E06A
:10259000E0E09CCFCF93DF930097E9F0FC01329706
:1025A00013821282A0915804B0915904ED0130E0D9
:1025B00020E01097A1F420813181820F931F209198
:1025C0005604309157042817390709F061C0F09379
:1025D0005704E0935604DF91CF910895EA01CE1796
:1025E000DF07E8F54A815B819E0141155105B1F78E
:1025F000E901FB83EA8349915991C40FD51FEC1778
:10260000FD0761F4808191810296840F951FE90195
:1026100099838883828193819B838A83F0E0E0E0C1
:1026200012968D919C9113970097B9F52D913C913D
:102630001197CD010296820F931F2091560430917D
:1026400057042817390739F6309751F51092590475
:1026500010925804B0935704A0935604BCCFD38370
:10266000C28340815181840F951FC817D90761F437
:102670004E5F5F4F88819981480F591F5183408376
:102680008A819B81938382832115310509F0B0CF24
:10269000F0935904E09358049ECFFD01DC01C0CFB4
:1026A00013821282D7CFAEE0B0E0E9E5F3E10C94FB
:1026B000D7110D891E8986E08C831A8309838FEFD9
:1026C0009FE79E838D83AE01475E5F4F6F89788D54
:1026D000CE0101960E9476132F813885020F131FB9
:1026E000F80110822E96E4E00C94F311ABE0B0E018
:1026F000ECE7F3E10C94C9117C013B018A01FC0178
:1027000017821682838181FFC8C1CE0101965C01C8
:10271000F7019381F30193FD859193FF81913F012F
:10272000882309F453C1853239F493FD859193FFD1
:1027300081913F01853229F4B70190E00E9466152E
:10274000E7CF912C212C312CFFE1F31538F08B329F
:1027500011F190F4803209F1833229F137FC3CC049
:1027600020ED280F2A3050F536FE20C08AE0989ED2
:10277000200D1124922E06C08D3291F0803371F716
:10278000689430F8F30193FD859193FF81913F01A7
:102790008111DACF21C0689431F8689432F8F2CF11
:1027A000689433F8EFCF689434F8ECCFEAE02E9ECB
:1027B000200D1124222E689435F8E4CF8E3229F4AE
:1027C00036FC04C1689436F8DDCF8C3619F4689471
:1027D00037F8D8CF8836B1F2982F9F7D9554933033
:1027E000E0F08336A1F18337C1F1833509F063C08E
:1027F0002801F2E04F0E511CF801C080D180692DF4
:1028000070E036FC02C06FEF7FEFC6010E945015EA
:102810004C01689437F882010AC00C5F1F4FFFE338
:10282000F98388248394912C6501E89437F833FE6A
:102830002DC0522C8114910471F5552009F468CFF4
:10284000B70180E290E00E9466155A94F6CFF80135
:10285000808189830E5F1F4FE4CF2801F2E04F0E85
:10286000511CF801C080D180692D70E036FC02C097
:102870006FEF7FEFC6010E945B154C018201D5CF3F
:10288000B70180E290E00E9466152A94281419048A
:1028900009F0B0F7CECFF60137FC859137FE819174
:1028A0006F01B70190E00E94661551105A94F1E053
:1028B0008F1A9108BFCF843619F0893609F077C096
:1028C000F80137FE6BC060817181828193810C5F5A
:1028D0001F4FF32DFF763F2E97FF09C090958095EF
:1028E000709561957F4F8F4F9F4F689437F82AE01E
:1028F00030E0A5010E949615C82ECA188C2C432CD6
:1029000036FE0CC0E89440F8C91440F434FE05C00B
:1029100032FC03C0F32DFE7E4F2E892C44FE95C061
:10292000FE01EC0DF11D8081803309F087C0242D5C
:10293000297E422E842D8870582E43FC95C040FE7F
:102940008FC09C2C821418F42C0C922C981844FEE6
:1029500091C0B70180E390E00E94661542FE09C075
:1029600088E790E041FE02C088E590E0B7010E9450
:102970006615C91408F48AC0CA94D12C9FEFC91AED
:10298000D90ACA0CDB1CF60182916F01B70190E0F5
:102990000E946615AC14BD04B1F74FCF6081718100
:1029A000072E000C880B990B0E5F1F4F92CFD32C74
:1029B000E894D4F82AE030E0853739F1232D297FD7
:1029C000D22E8F3601F148F48835A9F0F7018681BF
:1029D00097812B96E2E10C94E511803749F0883716
:1029E000A9F7D4FE02C06894D2F820E130E00DC00F
:1029F0006894D4F8F6CF34FE03C0822F8660D82EB8
:102A000020E132E002C028E030E0F801D7FE0FC03C
:102A100060817181828193810C5F1F4FA5010E94AB
:102A20009615C82ECA183D2CE89437F867CF6081F8
:102A3000718190E080E00E5F1F4FF0CF42FC02C03A
:102A4000839478CF8394839475CF842D867809F40A
:102A500071CFF6CFB70180E290E00E9466158394B3
:102A60008214C0F3512C73CF522C5818821408F4DE
:102A70006ECFF8CF842D867809F47BCF8BE241FEB0
:102A800080E247FC8DE2B70190E071CFB70180E3AF
:102A900090E00E9466159A946CCF8FEF9FEF99CFCC
:102AA000FC010590615070400110D8F78095909519
:102AB0008E0F9F1F0895FC0161507040019001101E
:102AC000D8F7809590958E0F9F1F08950F931F93B1
:102AD000CF93DF93182F092FEB018B8181FD09C064
:102AE0001FEF0FEF812F902FDF91CF911F910F914B
:102AF000089582FF14C02E813F818C819D8128170B
:102B000039073CF4E881F981CF01019699838883E4
:102B100010838E819F8101969F838E83E3CFE8850A
:102B2000F985812F0995892BA1F3DACFFA01AA271C
:102B3000283051F1203181F1E8946F936E7F6E5F00
:102B40007F4F8F4F9F4FAF4FB1E03ED0B4E03CD0AE
:102B5000670F781F891F9A1FA11D680F791F8A1F91
:102B6000911DA11D6A0F711D811D911DA11D20D0F8
:102B700009F468943F912AE0269F11243019305DB2
:102B80003193DEF6CF010895462F4770405D4193A3
:102B9000B3E00FD0C9F7F6CF462F4F70405D4A33F0
:102BA00018F0495D31FD4052419302D0A9F7EACFB8
:102BB000B4E0A6959795879577956795BA95C9F7E7
:102BC00000976105710508959B01AC010A2E0694DA
:102BD0005795479537952795BA95C9F7620F731F93
:0C2BE000841F951FA01D0895F894FFCFDE
:102BEC0002000000001F030F02310C00001D020048
:102BFC0000000000000000000000000000000000C9
:102C0C0000000000007F037F0302000000001F0390
:102C1C002B02E80A00013C02E80A00010000000057
:102C2C000000000000000000000000000000000098
:102C3C005A04800000004000140054000000000002
:102C4C0031074E0A0E0700000000CE08B4008706BC
:102C5C00FE03000000005701B400E400A4011501BC
:102C6C00F300070100000000710544058706E3002E
:102C7C003D052A051B0500000000D703AF0387069E
:102C8C00FE03F80395038003564D4450455F003A0C
:102C9C00323A007C005F564D445045000D0A00202E
:102CAC0020202020202563253033642E25316420FC
:102CBC0020202020002020202020205472696D200C
:102CCC00202020202000564D4450565F317C315F2F
:102CDC00564D4450560A00564D4450525F00202029
:102CEC0020205472616B5472696B65202020005453
:102CFC0072696D202020202020202020004578693A
:102D0C00742020202020202020200053657474691A
:102D1C006E67732020202020202020004D656E75CA
:0E2D2C006932202020202020202020200000BE
:00000001FF
