:100000000C9462000C94BC0D0C94950D0C948A0019
:100010000C948A000C948A000C948A000C948A0038
:100020000C948A000C948A000C948A000C948A0028
:100030000C948A000C948A000C948A000C948A0018
:100040000C944B0D0C948A000C94190D0C94F30C29
:100050000C948A000C948A000C948A000C948A00F8
:100060000C94E30D0C948A0000000000240027008B
:100070002A0000000000250028002B0000000008D6
:10008000000201000003040700000000000000005F
:10009000010204081020408001020408102001021F
:1000A000040810200000000023002600290004049A
:1000B0000404040404040202020202020303030310
:1000C0000303020F11241FBECFEFD8E0DEBFCDBF68
:1000D00012E0A0E0B1E0EAECFCE202C005900D9273
:1000E000AE37B107D9F724E0AEE7B2E001C01D9208
:1000F000AA35B207E1F710E0C2E6D0E004C02197CC
:10010000FE010E944612C136D107C9F70E941510A0
:100110000C9463160C94000081E480937C00809121
:100120007A00806480937A0080917A0086FDFCCF0B
:1001300080917800909179000895AF92BF92CF920C
:10014000DF92EF92FF920F931F93CF93DF936C0197
:100150007B018B01040F151FEB015E01AE18BF0878
:10016000C017D10759F06991D601ED91FC9101902A
:10017000F081E02DC6010995892B79F7C501DF9142
:10018000CF911F910F91FF90EF90DF90CF90BF9094
:10019000AF900895CF93DF93EB010E948C00998379
:1001A00088839B838A83DF91CF9108950895089572
:1001B0000895FC01538D448D252F30E0842F90E06D
:1001C000821B930B541710F0CF9608950197089552
:1001D000FC01918D828D981761F0A28DAE0FBF2F1B
:1001E000B11D5D968C91928D9F5F9F73928F90E071
:1001F00008958FEF9FEF0895FC01918D828D9817E0
:1002000031F0828DE80FF11D858D90E008958FEF1C
:100210009FEF0895FC01918D228D892F90E0805CE5
:100220009F4F821B91098F73992708958DE693E064
:100230000E940A0121E0892B09F420E0822F089511
:1002400080E090E0892B29F00E94160181110C9426
:1002500000000895FC01A48DA80FB92FB11DA35A69
:10026000BF4F2C91848D90E001968F739927848FD6
:10027000A689B7892C93A089B1898C9183708064F9
:100280008C93938D848D981306C00288F389E02D9A
:1002900080818F7D80830895EF92FF920F931F934B
:1002A000CF93DF93EC0181E0888F9B8D8C8D981329
:1002B0001AC0E889F989808185FF15C09FB7F89435
:1002C000EE89FF896083E889F98980818370806481
:1002D00080839FBF81E090E0DF91CF911F910F91CC
:1002E000FF90EF900895F62E0B8D10E00F5F1F4FDB
:1002F0000F731127E02E8C8D8E110CC00FB607FCEA
:10030000FACFE889F989808185FFF5CFCE010E9477
:100310002A01F1CFEB8DEC0FFD2FF11DE35AFF4FBA
:10032000F0829FB7F8940B8FEA89FB898081806205
:10033000CFCFCF93DF93EC01888D8823B9F0AA89C2
:10034000BB89E889F9898C9185FD03C0808186FD90
:100350000DC00FB607FCF7CF8C9185FFF2CF8081DF
:1003600085FFEDCFCE010E942A01E9CFDF91CF9129
:100370000895833081F028F4813099F08230A9F01B
:1003800008958730A9F08830C9F08430B1F48091A5
:1003900080008F7D03C0809180008F7780938000E4
:1003A000089584B58F7784BD089584B58F7DFBCF84
:1003B0008091B0008F778093B00008958091B00055
:1003C0008F7DF9CFCF93DF93282F30E0F901E458E8
:1003D000FF4F8491F901E057FF4FD491F901E255A5
:1003E000FF4FC491CC23A1F081110E94B901EC2FE1
:1003F000F0E0EE0FFF1FEC55FF4FA591B491EC918B
:10040000ED2381E090E009F480E0DF91CF91089541
:1004100080E090E0FACFFC0184850E94E20108951B
:10042000FC0185850E94E20108951F93CF93DF931D
:10043000282F30E0F901E458FF4F8491F901E0578B
:10044000FF4FD491F901E255FF4FC491CC23A9F09D
:10045000162F81110E94B901EC2FF0E0EE0FFF1F63
:10046000EE58FF4FA591B4918FB7F894EC9111110C
:1004700008C0D095DE23DC938FBFDF91CF911F9111
:100480000895DE2BF8CFCF93DF9390E0FC01E05787
:10049000FF4F249182559F4FFC0184918823C9F01E
:1004A00090E0880F991FFC01E859FF4FA591B49186
:1004B000FC01EE58FF4FC591D49161110DC09FB75B
:1004C000F8948C91209582238C938881282328830B
:1004D0009FBFDF91CF910895623051F49FB7F89498
:1004E0003C91822F809583238C93E8812E2BEFCF34
:1004F0008FB7F894EC912E2B2C938FBFEACFCF932C
:10050000DF93FC01C485DFB7F89460E08C2F0E9474
:10051000150261E08C2F0E944302DFBFDF91CF9173
:100520000895FC01668584850C944302CF93DF9384
:10053000FC01C585DFB7F89460E08C2F0E9415029E
:1005400061E08C2F0E944302DFBFDF91CF910895BD
:10055000FC01668585850C9443023FB7F894809131
:100560004B0390914C03A0914D03B0914E0326B5DF
:10057000A89B05C02F3F19F00196A11DB11D3FBFDB
:10058000BA2FA92F982F8827BC01CD01620F711DAA
:10059000811D911D42E0660F771F881F991F4A95A4
:1005A000D1F708958F929F92AF92BF92CF92DF9230
:1005B000EF92FF924B015C010E94AD026B017C0146
:1005C0000E94AD026C197D098E099F09683E734037
:1005D00081059105A8F321E0821A9108A108B108CC
:1005E00088EEC80E83E0D81EE11CF11C8114910432
:1005F000A104B10429F7FF90EF90DF90CF90BF9056
:10060000AF909F908F9008952FB7F8946091470313
:10061000709148038091490390914A032FBF089538
:100620000895DC015596EC91559756968C91569706
:10063000E81748F452968D919C91E80FF92FF11D1F
:10064000808190E008958FEF9FEF0895DC0155962B
:10065000EC91559756968C915697E81770F45296F0
:100660008D919C91539721E02E0F55962C93E80F76
:10067000F92FF11D808190E008958FEF9FEF08958D
:10068000CF92DF92EF92FF920F931F93CF93DF935E
:100690006C01EB017B01E40EF51E10E000E0CE15CD
:1006A000DF0561F06991D601ED91FC910190F08137
:1006B000E02DC6010995080F191FF1CFC801DF9180
:1006C000CF911F910F91FF90EF90DF90CF90089501
:1006D000DC015B96EC915B975A968C915A97E817E0
:1006E00048F081E090E013969C938E93129790E0EF
:1006F00080E0089558968D919C91599721E02E0F96
:100700005B962C93E80FF92FF11D608381E090E058
:100710000895FC0186899589891B990B0895089590
:100720008F929F92AF92BF92CF92DF92EF92FF9201
:100730000F931F93CF93DF938C01FC01868181304F
:10074000A9F5862F90E0EC01D695DC2FCC27D79524
:10075000C795661F6627661F6C2BEC0135E0CC0F32
:10076000DD1F3A95E1F7C0746C2BEC0143E0CC0F30
:10077000DD1F4A95E1F7C0726C2BEC01CC0FDD1F39
:10078000C0716C2BEC01D595C795C8706C2BEC0132
:10079000E3E0D595C795EA95E1F7C4706C2BF5E0D9
:1007A00095958795FA95E1F78270682BF801E280BC
:1007B000E69491E080E02181211101C090E0C92EF2
:1007C000D82EB12CA12CF12CC62FD0E0F8018081BD
:1007D000882369F0F1E0CF266C2DF80185810E9415
:1007E000150280E08E1518F400008F5FFBCFBE016C
:1007F0000A2C02C0759567950A94E2F76170F801BA
:1008000084810E94150280E08E1518F400008F5F2D
:10081000FBCF4601F1E08F26682DF80185810E940B
:100820001502F80183810E94E201F801968191305E
:1008300041F4FF0CF82A80E08E1540F400008F5F31
:10084000FBCF879588278795F694F4CFF8018081B0
:100850008823B9F06401FFEFAF1ABF0A28E0A2169F
:10086000B10409F0B3CF8F2DDF91CF911F910F917C
:10087000FF90EF90DF90CF90BF90AF909F908F90C0
:1008800008956C2D85810E941502E5CF2091D50237
:10089000260F3327331F21323105ECF420911E033C
:1008A000FC0190E080E0243069F082E00895A0919E
:1008B000D5022191AC014B545D4FA40FB52FB11D52
:1008C0002C930196861798F38091D502680F609358
:1008D000D50280E0089581E0089510921E0381E022
:1008E00080931D031092F80261E082E10E941502DC
:1008F00061E083E10E941502E9EBF0E080818E7FE8
:10090000808380818D7F808388E48093B80085E434
:100910008093BC000895CF93DF9391E09093B4024D
:100920008823B9F0C091B800D091BA008091BC0082
:100930008A7B8093BC0060E082E10E94150260E047
:1009400083E10E9415020E946D04D093BA00C09307
:10095000B800DF91CF9108950895E09156038091FA
:100960005503E81730F4F0E0EC56FD4F808190E03D
:1009700008958FEF9FEF089590915603809155034E
:100980002FEF3FEF981748F4E92FF0E0EC56FD4FBA
:10099000208130E09F5F90935603C90108958091B4
:1009A000550390915603891B990B0895CF92DF92BE
:1009B000EF92FF920F931F93CF93DF937C01CB01B4
:1009C0008A0120912403222389F0EB016B01C40EDC
:1009D000D51ECC15DD0569F06991D701ED91FC912B
:1009E0000190F081E02DC7010995F3CF642F0E949B
:1009F0004604C801DF91CF911F910F91FF90EF90B6
:100A0000DF90CF900895CF93DF931F92CDB7DEB7DD
:100A10006983209124032223F9F02091530320328B
:100A200058F021E030E0FC013383228390E080E045
:100A30000F90DF91CF91089580915403E82FF0E05B
:100A4000EB5DFC4F998190838F5F8093540380937B
:100A5000530381E090E0ECCF61E0CE0101960E946B
:100A60004604F7CFCF92DF92EF92FF920F931F933E
:100A7000CF93DF93FC01C48121E020932403C09332
:100A8000450310925403109253038385682B8AE028
:100A900094E00E940305D0915303D13208F092C034
:100AA0000E94AD026B017C0180911E03811165C023
:100AB00082E080931E0381E080931D038FEF80937B
:100AC0001C0310921B03D0931A03A5E2B3E0EAEFD4
:100AD000F2E080E0D81385C01092F9028091F9020B
:100AE000CC0FC82BC093F9028091F802813009F035
:100AF0007CC01092F8020E94AD026B017C018091D3
:100B0000F9028093BB008091200390912103A09172
:100B10002203B0912303892B8A2B8B2B99F00E94FF
:100B2000AD02009120031091210320912203309106
:100B300023036C197D098E099F09061717072807DB
:100B40003907E0F18091BC0083FDD9CF85EC80931B
:100B5000BC000E94AD026B017C0180911E038230BB
:100B600009F445C080911C038F3F61F180911C0303
:100B7000803241F180911C0325C080912003909127
:100B80002103A0912203B0912303892B8A2B8B2B65
:100B900009F48ACF0E94AD02009120031091210335
:100BA00020912203309123036C197D098E099F093E
:100BB000061717072807390708F076CF80911F031B
:100BC0000E948B041092540310925303109224033A
:100BD000DF91CF911F910F91FF90EF90DF90CF9019
:100BE00008959D9191938F5F75CF85EEB0CF8091E1
:100BF000200390912103A0912203B0912303892B1C
:100C00008A2B8B2B09F4A9CF0E94AD0200912003FF
:100C10001091210320912203309123036C197D0947
:100C20008E099F09061717072807390708F095CF7F
:100C3000C5CF90E080E008950F931F93CF93DF938B
:100C4000EC018D819E8182309105E1F08330910528
:100C5000C1F1892B29F48C810E94E201892B11F0CA
:100C600080E00BC082E090E09E838D830E940403AD
:100C7000688379838A839B8381E0DF91CF911F9181
:100C80000F9108958C810E94E201892B49F30E9403
:100C90000403088119812A813B81601B710B820B3F
:100CA000930B6932710581059105D0F283E090E0E4
:100CB0009E838D830E940403688379838A839B8348
:100CC000CFCF8C810E94E201892B51F20E94040354
:100CD000088119812A813B81601B710B820B930B68
:100CE000693271058105910508F4BACF1E821D8213
:100CF000B7CF0F931F93CF93DF938C01D62FC72FBE
:100D000060E0FC0184810E9415026C2F61706E5FAF
:100D1000F801828193810E9490036D2FF8018281F6
:100D200093810E94900361E0F8018481DF91CF916B
:100D30001F910F910C9415020F931F93CF93DF9384
:100D4000EC018B0160E08C810E941502612F6170C3
:100D50008A819B810E949003602F8A819B810E94DF
:100D6000900361E08C81DF91CF911F910F910C94E2
:100D70001502CF93DF93EC0161E08C810E94430266
:100D800061E08C810E941502EA81FB8180E282830E
:100D9000118281E0808360E085810E9415020A80D3
:100DA000DB81C02D61E08C810E94430260E08B8179
:100DB0000E94430261E08D81DF91CF910C94430248
:100DC00002960895DC01ED91FD918081ED91FD91F8
:100DD0009081ED91FD916C9163708E2309F06460B8
:100DE0009F2309F06860EFEFF6E0E60FF11D6595CF
:100DF00065956D936D917D918D919D91099423C021
:100E00001AC012C016C010C01EC009C014C013C042
:100E100006C019C009C00DC007C00DC014C0625083
:100E20007040804090400BC06150704080409040C6
:100E300006C06E5F01C06F5F7F4F8F4F9F4F9E93C5
:100E40008E937E936E93089580911604909117046B
:100E50000C94E20680911804909119040C94E20617
:100E60008F929F92AF92BF92CF92DF92EF92FF92BA
:100E70000F931F93CF93DF93FC0122813381232BA8
:100E800071F480E0DF91CF911F910F91FF90EF906F
:100E9000DF90CF90BF90AF909F908F900895EC011E
:100EA00000811181F80183858230D0F4F894C80163
:100EB0000E94E206F801C780D084E184F28478942D
:100EC0008E889F88A88CB98C0E94040368157905C8
:100ED0008A059B0538F4CA8ADB8AEC8AFD8AD1CF61
:100EE000F894E8CF4A895B896C897D894C155D054A
:100EF0006E057F0531F28889998997018601041B67
:100F0000150B260B370BB901A80177FF03C091958C
:100F100081959109092E000CAA0BBB0B4C815D81B8
:100F20006E817F81840F951FA61FB71F0C851D85BD
:100F30002E853F85488559856A857B858017910771
:100F4000A207B3074CF48A8D9B8D019771F44C83F3
:100F50005D836E837F830DC0481759076A077B073F
:100F6000ECF58A8D9B8D019791F70C831D832E8361
:100F70003F838C819D81AE81BF8180179107A2073D
:100F8000B30724F40C831D832E833F838C819D81C2
:100F9000AE81BF81481759076A077B0724F44C8349
:100FA0005D836E837F83EA81FB818C819D81AE812D
:100FB000BF8180839183A283B383CA8ADB8AEC8A50
:100FC000FD8A0E9404032C8D620F711D811D911DED
:100FD0006E8B7F8B888F998F81E054CF8C839D831C
:100FE000AE83BF83C6CF0F931F93CF938C01C62FC1
:100FF0000E9432056C2F6460C8010E9432056C2F7C
:101000006B7FC8010E94320583EC90E00197F1F7F5
:10101000CF911F910F9108950F931F93CF93DF935B
:101020008C01D62FC42F607F642B0E94F30780E1D0
:10103000D89FB00111246C2BC801DF91CF911F9173
:101040000F910C94F307CF93DF93CDB7DEB72897BA
:101050000FB6F894DEBF0FBECDBF28E0E8E5F1E0A3
:10106000DE01119601900D922A95E1F7FC01208591
:10107000261708F46FEF70E0660F771F21E030E06D
:101080002C0F3D1F620F731FFB016081606840E001
:1010900028960FB6F894DEBF0FBECDBFDF91CF917B
:1010A0000C940C0840E061E00E940C088BE39FE187
:1010B0000197F1F7089541E00E940C0881E090E06B
:1010C0000895FB0101900020E9F73197AF01461B1D
:1010D000570BDC01ED91FC910280F381E02D099426
:1010E0006115710511F00C94610890E080E008959D
:1010F000CF93DF93EC01ED81FE81808191810E948D
:1011000052088F819885892B79F0ED81FE8160E00E
:10111000808191810E9423086F817885ED81FE8115
:10112000808191810E947008ED81FE8161E0808163
:1011300091810E94230889819A8126E0289FF001ED
:10114000299FF00D1124EC0FFD1F61857285ED8143
:10115000FE8180819181DF91CF910C9470080F9373
:101160001F93CF93DF938C01DC011596ED91FC91D9
:10117000C281D381FC0181918150990B092E000C11
:10118000AA0BBB0BFB83EA83F80141815281638187
:1011900074814C835D836E837F8388879987AA8758
:1011A000BB871C861D861E861F8681E090E0998B7A
:1011B000888B1A8A1B8A1C8A1D8A1E8A1F8A188E8F
:1011C000198E9B8F8A8F0E9404032C8D620F711DD4
:1011D000811D911D6E8B7F8B888F998FD8011596FD
:1011E000ED91FC910280F381E02D88EC848FC801A1
:1011F000DF91CF911F910F910C947808CF92DF92DD
:10120000EF92FF920F931F93CF93DF93CDB7DEB78B
:10121000A1970FB6F894DEBF0FBECDBF07E513E070
:10122000D801ED91FD918D01309731F060E972E0C8
:1012300087E593E00995F4CF2091900230919102D7
:1012400050E040E019A28E010F5D1F4F8AE0C82ECA
:10125000D12CE12CF12CCA01B901A70196010E9401
:10126000E211605DF80162938F012115310541059E
:10127000510589F7309729F0BF018DE693E00E9470
:1012800061086CE772E08DE693E00E94610864EB10
:1012900071E08DE693E00E94610880916703909170
:1012A00068036091900270919102DC01ED91FC91D4
:1012B0000280F381E02D09958091690390916A0382
:1012C0006091920270919302DC01ED91FC91028099
:1012D000F381E02D0995A1960FB6F894DEBF0FBEFD
:1012E000CDBFDF91CF911F910F91FF90EF90DF90D5
:1012F000CF9008950F931F93CF93DF93EC01198242
:101300001A821B821C820E94AF0880916503909113
:1013100066030E941C0681113FC016E0ED81FE812C
:10132000848195810E941C06082FED81FE818281B7
:1013300093810E943007882319F0CE010E9478081B
:10134000002309F149815A816B817C81888190E079
:10135000B0E0A0E0481759076A077B07A0F4149F84
:10136000D001159FB00D1124AC0FBD1F1B96ED9140
:10137000FC911C97309799F01D968D919C91099541
:10138000CE010E94AF0862E370E080E090E00E942E
:10139000D2020E94FE08C2CF0E94FE08B6CFDF91A3
:1013A000CF911F910F91089585ED8093BC0080919E
:1013B000200390912103A0912203B091230307966B
:1013C000A11DB11D23E0B695A795979587952A9500
:1013D000D1F72091BC0024FD03C010921E03089594
:1013E00040912003509121036091220370912303C7
:1013F000452B462B472B69F30097A105B10541F01A
:101400002AE22A95F1F700C00197A109B109E1CFBD
:1014100080911F030C948B040F931F93CF93DF9342
:10142000CDB7DEB762970FB6F894DEBF0FBECDBF63
:101430008C01085E134061E080916103909162032A
:101440000E942308C8016AE070E00E94CE1197FF55
:1014500003C09195819591099C01C8010A3011053D
:1014600034F06AE070E00E94CE1180E207C066EFBF
:101470007FEF0E94CE118DE217FFF7CF3F932F939E
:101480007F936F931F928F9387EB91E09F938F933E
:101490008E010F5F1F4F1F930F930E948B13B80194
:1014A00080916103909162030E9470080FB6F894D6
:1014B000DEBF0FBECDBF62960FB6F894DEBF0FBE83
:1014C000CDBFDF91CF911F910F9108958F929F9281
:1014D000AF92BF92CF92DF92EF92FF920F931F9342
:1014E000CF93DF93CDB7DEB762970FB6F894DEBF28
:1014F0000FBECDBF6B014C010E948C005C0101E668
:1015000013E060E0F801808191810E942308BF927E
:10151000AF928CEC91E09F938F93CE0101967C016A
:101520009F938F930E948B13B701F8018081918163
:101530000E94700861E0F801808191810E94230877
:10154000DF92CF92D5019601A4010E942A1228EEC3
:1015500033E040E050E00E94E2113F932F938DED85
:1015600091E09F938F93FF92EF920E948B13B701AC
:10157000F801808191810E9470080FB6F894DEBF57
:101580000FBECDBF62960FB6F894DEBF0FBECDBFC3
:10159000DF91CF911F910F91FF90EF90DF90CF904F
:1015A000BF90AF909F908F900895FF920F931F93DD
:1015B000CF93DF938C010E5F1F4FBC01685F7F4F9D
:1015C000F80130E020E06E177F0721F04191240FF1
:1015D000311DF9CFFC0131872087D0E0C0E0F80150
:1015E000F1908F01CE010E94B811F81621F06F2DF5
:1015F000CE010E94C0112196C830D10581F7DF913C
:10160000CF911F910F91FF900895CF92DF92EF92AB
:10161000FF920F931F93CF93DF93EC018C010E5F2A
:101620001F4F6801F12CE12CC7010E94B811F6018F
:1016300081936F01FFEFEF1AFF0A88E0E816F104CB
:1016400099F7A8014A5F5F4F90E080E00417150703
:1016500031F0F80121918F01820F911DF7CF28857C
:1016600039852817390721F48A819B810297B9F0BF
:10167000198618861D821C828CE692E09F838E83D9
:1016800082E090E09B838A83CE01DF91CF911F910E
:101690000F91FF90EF90DF90CF900C94D50ADF91DF
:1016A000CF911F910F91FF90EF90DF90CF90089511
:1016B0008091880281110DC084E691E090937F02B1
:1016C00080937E028EE792E00E94050B81E080937A
:1016D00088028EE792E00895CF92DF92EF92FF9218
:1016E0000F931F93CF93DF93EB010E94580BDC0104
:1016F000ED91FC910280F381E02D0995FC010481BC
:10170000158128813981D8010E94231228EEC22E2A
:1017100023E0D22EE12CF12CA70196010E940412A5
:10172000398328832A813B81D8010E942312A70193
:1017300096010E9404123B832A83DF91CF911F916F
:101740000F91FF90EF90DF90CF900895CF92DF92AE
:10175000EF92FF920F931F93CF93DF9300D000D0AF
:10176000CDB7DEB70E94580BDC01ED91FC910280F1
:10177000F381E02D099580916103909162030E94AD
:10178000520888EE93E0A0E0B0E089839A83AB83AF
:10179000BC8300916303109164039E012F5F3F4F50
:1017A000F8013383228384839583A683B78380EDF6
:1017B00097E0A0E0B0E080879187A287B387148686
:1017C00015861686178681E090E0918B808B128AB1
:1017D000138A148A158A168A178A108E118E138E10
:1017E000128E0E940403F801248D620F711D811D69
:1017F000911D668B778B808F918F6EEE71E080915B
:101800006103909162030E94700889819A810E940D
:101810000C0A09811A8180916303909164030E94EC
:101820003007882321F089819A810E940C0A0E9446
:10183000FE0880916503909166030E941C06882330
:1018400051F3C980DA80EB80FC80012E000C220B62
:10185000330B0C151D052E053F05A1F00E94580BFA
:10186000DC01ED91FC910280F381E02D0995B8EE49
:10187000CB1AB3E0DB0AFC01D382C2820E94580B70
:101880000E94D50A0F900F900F900F90DF91CF918B
:101890001F910F91FF90EF90DF90CF9008958F925E
:1018A0009F92AF92BF92CF92DF92EF92FF920F93EF
:1018B0001F93CF93DF9300D000D0CDB7DEB70E9447
:1018C000580BDC01ED91FC910280F381E02D09952C
:1018D000FC01C480D5800D2C000CEE08FF0880911F
:1018E0006103909162030E945208C982DA82EB82FE
:1018F000FC820091630310916403CE010196D8012C
:1019000013969C938E931297F801C482D582E68237
:10191000F78288EE93E0A0E0B0E080879187A2870D
:10192000B387148615861686178681E090E0918B22
:10193000808B128A138A148A158A168A178A108E47
:10194000118E138E128E0E940403F801248D620FF3
:10195000711D811D911D668B778B808F918F6981A1
:101960007A818B819C810E94660A809163039091A9
:1019700064030E94300769817A818B819C810E9477
:10198000660A80916503909166030E941C06882375
:1019900061F389809A80AB80BC808C149D04AE0476
:1019A000BF0481F00E94580BDC01ED91FC91028094
:1019B000F381E02D0995FC01958284820E94580BE9
:1019C0000E94D50A0F900F900F900F90DF91CF914A
:1019D0001F910F91FF90EF90DF90CF90BF90AF904D
:1019E0009F908F9008951F920F920FB60F9211241F
:1019F0002F933F934F935F936F937F938F939F9317
:101A0000AF93BF93EF93FF938DE693E00E942A017B
:101A1000FF91EF91BF91AF919F918F917F916F91C6
:101A20005F914F913F912F910F900FBE0F901F909C
:101A300018951F920F920FB60F9211242F938F9328
:101A40009F93EF93FF93E0917D03F0917E0380815C
:101A5000E0918303F091840382FD1BC0908180910B
:101A600086038F5F8F7320918703821741F0E09187
:101A70008603F0E0E359FC4F958F80938603FF9136
:101A8000EF919F918F912F910F900FBE0F901F900C
:101A900018958081F4CF1F920F920FB60F921124E8
:101AA0002F933F938F939F93AF93BF93809147035F
:101AB00090914803A0914903B0914A0330914603A5
:101AC00023E0230F2D3758F50196A11DB11D20935A
:101AD00046038093470390934803A0934903B09330
:101AE0004A0380914B0390914C03A0914D03B09118
:101AF0004E030196A11DB11D80934B0390934C039F
:101B0000A0934D03B0934E03BF91AF919F918F91DE
:101B10003F912F910F900FBE0F901F90189526E8C0
:101B2000230F0296A11DB11DD2CF1F920F920FB6A7
:101B30000F9211242F933F934F935F936F937F9353
:101B40008F939F93AF93BF93EF93FF93E0912901FE
:101B5000F0912A010995FF91EF91BF91AF919F916B
:101B60008F917F916F915F914F913F912F910F9046
:101B70000FBE0F901F9018951F920F920FB60F92E5
:101B800011242F933F934F935F936F937F938F9382
:101B90009F93AF93BF93EF93FF93E0912701F09151
:101BA00028010995FF91EF91BF91AF919F918F917E
:101BB0007F916F915F914F913F912F910F900FBE49
:101BC0000F901F9018951F920F920FB60F9211242D
:101BD0002F933F934F935F936F937F938F939F9335
:101BE000AF93BF93EF93FF938091B900887F8036C6
:101BF00009F44AC0F0F5883209F4A7C018F580311D
:101C000009F49BC0B8F4882309F4F9C0883009F4BA
:101C100094C0FF91EF91BF91AF919F918F917F9170
:101C20006F915F914F913F912F910F900FBE0F9049
:101C30001F901895883109F488C0803251F780933D
:101C40001C0314C0803409F49DC040F48033B9F300
:101C50008833F9F680931C0385ECB0C0803509F415
:101C600085C0883509F496C0883499F60E94D40955
:101C7000D0CF883909F48CC038F5883729F050F472
:101C8000883611F0803729F683E080931E03109286
:101C9000F70257C0883809F47BC0803919F08038C2
:101CA00009F0B7CF8091F702803208F071C0E0915F
:101CB000F70281E08E0F8093F7028091BB00F0E085
:101CC000E952FD4F80833DC0803B39F0E0F4803A1B
:101CD00009F479C0883A09F09CCF84E080931E0310
:101CE0001092D6021092D502E0915103F091520366
:101CF00009958091D50281110FC081E08093D502B2
:101D00001092B50209C0803C09F4A6CF883C09F4C2
:101D1000A3CF883B09F07DCFE091D60281E08E0F02
:101D20008093D602F0E0EB54FD4F80818093BB009E
:101D30009091D6028091D50229C08091F9028093BA
:101D4000BB0085EC8093BC0064CF90911B03809115
:101D50001A03981758F5E0911B0381E08E0F8093CA
:101D60001B03F0E0E650FD4F8081E9CFE0911B03BB
:101D700081E08E0F80931B038091BB00F0E0E65062
:101D8000FD4F808390911B0380911A039817C8F22E
:101D900085E8D8CFE0911B0381E08E0F80931B0371
:101DA0008091BB00F0E0E650FD4F808380911D03E1
:101DB00081115CCF81E08093F80284EA8093BC00BB
:101DC00010921E0326CF85EC8093BC0010921E0358
:101DD0008091F702803230F4E091F702F0E0E952AE
:101DE000FD4F10826091F70270E0E0914F03F09197
:101DF000500387ED92E009951092F7020ACF1092F6
:101E00001C0334CFCF93DF931092700310926F03B3
:101E100088EE93E0A0E0B0E08093710390937203AA
:101E2000A0937303B093740322E831E030936E0300
:101E300020936D0325EC30E030937A0320937903EF
:101E400024EC30E030937C0320937B0320EC30E0E3
:101E500030937E0320937D0321EC30E030938003A8
:101E600020937F0322EC30E03093820320938103A0
:101E700026EC30E030938403209383031092860392
:101E800010928703109288031092890310920D0418
:101E900010920C0480930E0490930F04A0931004EE
:101EA000B093110424E931E030930B0420930A0429
:101EB0002BE02093530425E1209352042DE020933E
:101EC000540422E02093510410924F0410925004C5
:101ED00021E0209355041092290410922804809345
:101EE0002A0490932B04A0932C04B0932D0486EA2B
:101EF00091E0909327048093260485E08093320438
:101F000086E080933304109234048AE08093350491
:101F100084E690E09093370480933604109239045D
:101F20001092380410923A0410923B0410923C0430
:101F300088E080933D0410923F0410923E0410927A
:101F4000400410924104109242048FE792E0909373
:101F500044048093430481E992E090934604809383
:101F6000450486E992E0909348048093470488EA08
:101F700092E090934A04809349048BE092E090931E
:101F80004C0480934B0480E192E090934E04809344
:101F90004D0462E085E00E94430262E084E00E941A
:101FA0004302E3EBF0E0E491F0E0EE0FFF1FEC55AD
:101FB000FF4FA591B491B0931B04A0931A04E5E9D7
:101FC000F0E0449140931E04E2EBF0E0E491F0E095
:101FD000EE0FFF1FEC55FF4FC591D491D0931D0418
:101FE000C0931C04E4E9F0E0E491E0931F04109234
:101FF00021041092220410922304109224042BE353
:102000003FE1C9010197F1F79C91842F892391E069
:1020100009F490E08881E82309F09260909320040D
:1020200010922504DF91CF910895789484B5826051
:1020300084BD84B5816084BD85B5826085BD85B56C
:10204000816085BD80916E00816080936E001092EA
:102050008100809181008260809381008091810065
:1020600081608093810080918000816080938000F6
:102070008091B10084608093B1008091B000816054
:102080008093B00080917A00846080937A00809180
:102090007A00826080937A0080917A0081608093D8
:1020A0007A0080917A00806880937A001092C10053
:1020B000E0917D03F0917E0312E01083E0917903BB
:1020C000F0917A031082E0917B03F0917C0300E1B0
:1020D000008310928503E0918103F091820386E0F2
:1020E0008083E0917F03F091800380818061808311
:1020F000E0917F03F0918003808188608083E0918C
:102100007F03F0918003808180688083E0917F036A
:10211000F091800380818F7D808361E08BE00E945D
:10212000430261E08BE00E9415028CE090E00E9487
:102130006612EC011B821A828CE691E099838883F7
:1021400087E28C8309871A871B86D0936C03C09320
:102150006B03109256031092550310925403109281
:1021600053030E946D0487ED90E090935203809397
:10217000510388ED90E09093500380934F031D82AC
:102180008A85823010F098E09D83888762E370E052
:1021900080E090E00E94D2026B85CE010E94320561
:1021A00068EE73E080E090E00E94D20260E3CE012E
:1021B0000E94F3070BE416E4C8010197F1F760E30E
:1021C000CE010E94F307C8010197F1F760E3CE0149
:1021D0000E94F30783E592E00197F1F760E2CE01F8
:1021E0000E94F3076D81606240E0CE010E940C08FE
:1021F00084E08E8340E06CE0CE010E940C08CE01AA
:102200000E94520882E08F8340E066E0CE010E9487
:102210000C0840E062E0CE010E940C088BE39FE1D5
:102220000197F1F788E08B8760E0CE010E943205CC
:10223000CE010E9452086FEF71E0CE010E9470083B
:1022400087E090E00E946612EC0190936603809311
:10225000650386E08C8362E00E9443021E821D8239
:102260008DE190E00E946612EC018AE194E099838E
:1022700088831B821A828AE08C8F00ED17E08091A0
:102280002504823008F072C0F8948AE194E00E943C
:10229000E20678940150110991F7D0936403C0933A
:1022A000630380916B0390916C039093620380931E
:1022B000610386E090E00E94661208E711E0DC010D
:1022C00011961C930E93CFE4D4E01396DC93CE9337
:1022D00012972CE030E015963C932E931497909330
:1022E0006803809367030E94B90686E090E00E942D
:1022F0006612FC0111830083D383C28327E030E0A0
:102300003583248390936A03809369030E94B906FE
:10231000EDE5F3E084E0DF011D928A95E9F78AECB0
:1023200090E090935803809357038CE69BE0909342
:102330005A038093590386ED90E090935C03809359
:102340005B03C0E0D0E08BE291E00E947A0962E397
:1023500070E080E090E00E94D2022097A1F30E94FA
:102360001601882381F30E940000EDCFF89491CFED
:10237000F999FECF92BD81BDF89A992780B508954D
:10238000262FF999FECF1FBA92BD81BD20BD0FB691
:10239000F894FA9AF99A0FBE0196089597FB072EC2
:1023A00016F4009407D077FD09D00E94321207FC82
:1023B00005D03EF4909581959F4F08957095619555
:1023C0007F4F0895A1E21A2EAA1BBB1BFD010DC071
:1023D000AA1FBB1FEE1FFF1FA217B307E407F507D5
:1023E00020F0A21BB30BE40BF50B661F771F881FB1
:1023F000991F1A9469F760957095809590959B0147
:10240000AC01BD01CF010895052E97FB1EF4009489
:102410000E941B1257FD07D00E94E21107FC03D057
:102420004EF40C941B1250954095309521953F4FDA
:102430004F4F5F4F089590958095709561957F4FB0
:102440008F4F9F4F08950E944C12B7FF0895821B33
:10245000930B0895B7FF0C945B120E945B12821BD2
:10246000930B0895AA1BBB1B51E107C0AA1FBB1FFA
:10247000A617B70710F0A61BB70B881F991F5A9510
:10248000A9F780959095BC01CD010895EE0FFF1F2F
:102490000590F491E02D0994A29FB001B39FC00173
:1024A000A39F700D811D1124911DB29F700D811D80
:1024B0001124911D08950E944C12A59F900DB49F68
:1024C000900DA49F800D911D112408950F931F93CB
:1024D000CF93DF938230910510F482E090E0E09199
:1024E0005804F091590430E020E0B0E0A0E03097CB
:1024F00099F42115310509F44AC0281B390B243001
:102500003105D8F58A819B816115710589F1FB013F
:1025100093838283FE0111C0408151810281138126
:1025200048175907E0F04817590799F4109761F0D8
:1025300012960C93129713961C933296CF01DF914B
:10254000CF911F910F91089500935804109359044F
:10255000F4CF2115310551F04217530738F0A90186
:10256000DB019A01BD01DF01F801C1CFEF01F9CF15
:102570009093590480935804CDCFFE01E20FF31FCE
:10258000819391932250310939832883D7CF2091A9
:10259000560430915704232B41F42091540130917B
:1025A00055013093570420935604209152013091E5
:1025B00053012115310541F42DB73EB74091560125
:1025C00050915701241B350BE0915604F0915704AC
:1025D000E217F307A0F42E1B3F0B2817390778F0FA
:1025E000AC014E5F5F4F2417350748F04E0F5F1F59
:1025F0005093570440935604819391939FCFF0E0FA
:10260000E0E09CCFCF93DF930097E9F0FC01329795
:1026100013821282A0915804B0915904ED0130E068
:1026200020E01097A1F420813181820F931F209127
:102630005604309157042817390709F061C0F09308
:102640005704E0935604DF91CF910895EA01CE1725
:10265000DF07E8F54A815B819E0141155105B1F71D
:10266000E901FB83EA8349915991C40FD51FEC1707
:10267000FD0761F4808191810296840F951FE90125
:1026800099838883828193819B838A83F0E0E0E051
:1026900012968D919C9113970097B9F52D913C91CD
:1026A0001197CD010296820F931F2091560430910D
:1026B00057042817390739F6309751F51092590405
:1026C00010925804B0935704A0935604BCCFD38300
:1026D000C28340815181840F951FC817D90761F4C7
:1026E0004E5F5F4F88819981480F591F5183408306
:1026F0008A819B81938382832115310509F0B0CFB4
:10270000F0935904E09358049ECFFD01DC01C0CF43
:1027100013821282D7CFAEE0B0E0E1E9F3E10C948E
:102720003A160D891E8986E08C831A8309838FEF00
:102730009FE79E838D83AE01475E5F4F6F89788DE3
:10274000CE0101960E94AE132F813885020F131F10
:10275000F80110822E96E4E00C945616ABE0B0E03F
:10276000E4EBF3E10C942C167C013B018A01FC01A3
:1027700017821682838181FFC8C1CE0101965C0158
:10278000F7019381F30193FD859193FF81913F01BF
:10279000882309F453C1853239F493FD859193FF61
:1027A00081913F01853229F4B70190E00E949E1586
:1027B000E7CF912C212C312CFFE1F31538F08B322F
:1027C00011F190F4803209F1833229F137FC3CC0D9
:1027D00020ED280F2A3050F536FE20C08AE0989E62
:1027E000200D1124922E06C08D3291F0803371F7A6
:1027F000689430F8F30193FD859193FF81913F0137
:102800008111DACF21C0689431F8689432F8F2CFA0
:10281000689433F8EFCF689434F8ECCFEAE02E9E5A
:10282000200D1124222E689435F8E4CF8E3229F43D
:1028300036FC04C1689436F8DDCF8C3619F4689400
:1028400037F8D8CF8836B1F2982F9F7D95549330C2
:10285000E0F08336A1F18337C1F1833509F063C01D
:102860002801F2E04F0E511CF801C080D180692D83
:1028700070E036FC02C06FEF7FEFC6010E94881542
:102880004C01689437F882010AC00C5F1F4FFFE3C8
:10289000F98388248394912C6501E89437F833FEFA
:1028A0002DC0522C8114910471F5552009F468CF84
:1028B000B70180E290E00E949E155A94F6CFF8018D
:1028C000808189830E5F1F4FE4CF2801F2E04F0E15
:1028D000511CF801C080D180692D70E036FC02C027
:1028E0006FEF7FEFC6010E9493154C018201D5CF97
:1028F000B70180E290E00E949E152A9428141904E2
:1029000009F0B0F7CECFF60137FC859137FE819103
:102910006F01B70190E00E949E1551105A94F1E0AA
:102920008F1A9108BFCF843619F0893609F077C025
:10293000F80137FE6BC060817181828193810C5FE9
:102940001F4FF32DFF763F2E97FF09C0909580957E
:10295000709561957F4F8F4F9F4F689437F82AE0AD
:1029600030E0A5010E94CE15C82ECA188C2C432C2D
:1029700036FE0CC0E89440F8C91440F434FE05C09B
:1029800032FC03C0F32DFE7E4F2E892C44FE95C0F1
:10299000FE01EC0DF11D8081803309F087C0242DEC
:1029A000297E422E842D8870582E43FC95C040FE0F
:1029B0008FC09C2C821418F42C0C922C981844FE76
:1029C00091C0B70180E390E00E949E1542FE09C0CD
:1029D00088E790E041FE02C088E590E0B7010E94E0
:1029E0009E15C91408F48AC0CA94D12C9FEFC91A45
:1029F000D90ACA0CDB1CF60182916F01B70190E085
:102A00000E949E15AC14BD04B1F74FCF6081718157
:102A1000072E000C880B990B0E5F1F4F92CFD32C03
:102A2000E894D4F82AE030E0853739F1232D297F66
:102A3000D22E8F3601F148F48835A9F0F70186814E
:102A400097812B96E2E10C944816803749F088373D
:102A5000A9F7D4FE02C06894D2F820E130E00DC09E
:102A60006894D4F8F6CF34FE03C0822F8660D82E47
:102A700020E132E002C028E030E0F801D7FE0FC0CC
:102A800060817181828193810C5F1F4FA5010E943B
:102A9000CE15C82ECA183D2CE89437F867CF608150
:102AA000718190E080E00E5F1F4FF0CF42FC02C0CA
:102AB000839478CF8394839475CF842D867809F49A
:102AC00071CFF6CFB70180E290E00E949E1583940B
:102AD0008214C0F3512C73CF522C5818821408F46E
:102AE0006ECFF8CF842D867809F47BCF8BE241FE40
:102AF00080E247FC8DE2B70190E071CFB70180E33F
:102B000090E00E949E159A946CCF8FEF9FEF99CF23
:102B1000FC010590615070400110D8F780959095A8
:102B20008E0F9F1F0895FC016150704001900110AD
:102B3000D8F7809590958E0F9F1F08950F931F9340
:102B4000CF93DF93182F092FEB018B8181FD09C0F3
:102B50001FEF0FEF812F902FDF91CF911F910F91DA
:102B6000089582FF14C02E813F818C819D8128179A
:102B700039073CF4E881F981CF0101969983888374
:102B800010838E819F8101969F838E83E3CFE8859A
:102B9000F985812F0995892BA1F3DACFFA01AA27AC
:102BA000283051F1203181F1E8946F936E7F6E5F90
:102BB0007F4F8F4F9F4FAF4FB1E03ED0B4E03CD03E
:102BC000670F781F891F9A1FA11D680F791F8A1F21
:102BD000911DA11D6A0F711D811D911DA11D20D088
:102BE00009F468943F912AE0269F11243019305D42
:102BF0003193DEF6CF010895462F4770405D419333
:102C0000B3E00FD0C9F7F6CF462F4F70405D4A337F
:102C100018F0495D31FD4052419302D0A9F7EACF47
:102C2000B4E0A6959795879577956795BA95C9F776
:102C300000976105710508959B01AC010A2E069469
:102C40005795479537952795BA95C9F7620F731F22
:102C5000841F951FA01D08952F923F924F925F925F
:102C60006F927F928F929F92AF92BF92CF92DF929C
:102C7000EF92FF920F931F93CF93DF93CDB7DEB701
:102C8000CA1BDB0B0FB6F894DEBF0FBECDBF099495
:102C90002A88398848885F846E847D848C849B84EC
:102CA000AA84B984C884DF80EE80FD800C811B81FA
:102CB000AA81B981CE0FD11D0FB6F894DEBF0FBE29
:0A2CC000CDBFED010895F894FFCF99
:102CCA000300000000610310022102A60B00002F7E
:102CDA00024F0C00003D020000000000000000004E
:102CEA0000000000000000100310030200000000B2
:102CFA0061034B025C027A0900016D027A09000144
:102D0A0000000000000000000000000000000000B9
:102D1A00000000005A048000000040001400540023
:102D2A0000000000050BE006000000005B089D00A3
:102D3A0019068F0300000000B9069C0679060000F8
:102D4A0000004C019D00D90099010A01E800FC002D
:102D5A00000000000305D6041906AC04CF04BC0425
:102D6A00AD04000000006803400319068F038903BD
:102D7A00260311030D0A0020202020202563253078
:102D8A0033642E253164202020202000496E3A2504
:102D9A00303464202020202020202020004F757409
:102DAA003A253034642053633A25303464002020B5
:102DBA00202020205472696D20202020202000200D
:102DCA002020205472616B5472696B6520202000A8
:102DDA002053657474696E6773204D656E75202083
:102DEA00005472696D2020202020202020200053CA
:102DFA0063616C65722020202020202000457869BC
:102E0A0074202020202020202020002020205472FE
:102E1A00616B205472696B652020200053657474BD
:102E2A00696E67732020202020202020004D656EC7
:0E2E3A0075693220202020202020202020003A
:107800000C94343C0C94513C0C94513C0C94513CE1
:107810000C94513C0C94513C0C94513C0C94513CB4
:107820000C94513C0C94513C0C94513C0C94513CA4
:107830000C94513C0C94513C0C94513C0C94513C94
:107840000C94513C0C94513C0C94513C0C94513C84
:107850000C94513C0C94513C0C94513C0C94513C74
:107860000C94513C0C94513C11241FBECFEFD8E036
:10787000DEBFCDBF11E0A0E0B1E0ECE9FFE702C060
:1078800005900D92A230B107D9F712E0A2E0B1E065
:1078900001C01D92AD30B107E1F70E942D3D0C945F
:1078A000CC3F0C94003C982F959595959595959582
:1078B000905D8F708A307CF0282F295A8091C0000B
:1078C00085FFFCCF9093C6008091C00085FFFCCF60
:1078D0002093C6000895282F205DF0CF982F809127
:1078E000C00085FFFCCF9093C6000895EF92FF92F1
:1078F0000F931F93EE24FF2487018091C00087FD22
:1079000017C00894E11CF11C011D111D81E4E8164B
:1079100082E4F8068FE0080780E0180770F3E09132
:107920000401F091050109958091C00087FFE9CF1E
:107930008091C6001F910F91FF90EF9008950E94D3
:10794000763C982F8091C00085FFFCCF9093C600B5
:1079500091362CF490330CF09053892F089597555D
:10796000892F08951F930E949F3C182F0E949F3CCF
:107970001295107F810F1F9108951F93182F882350
:1079800021F00E94763C1150E1F71F9108951F935A
:10799000182F0E94763C803249F0809103018F5F5E
:1079A000809303018530C1F01F9108958091C0003C
:1079B00085FFFCCF84E18093C6008091C00085FFE5
:1079C000FCCF1093C6008091C00085FFFCCF80E102
:1079D0008093C6001F910895E0910401F091050184
:1079E00009951F9108950E94763C803241F0809164
:1079F00003018F5F80930301853081F008958091AA
:107A0000C00085FFFCCF84E18093C6008091C00058
:107A100085FFFCCF80E18093C6000895E0910401CA
:107A2000F09105010995089540E951E08823A1F0FE
:107A30002D9A28EE33E0FA013197F1F721503040CA
:107A4000D1F72D9828EE33E0FA013197F1F7215064
:107A50003040D1F7815061F708953F924F925F9285
:107A60006F927F928F929F92AF92BF92CF92DF924E
:107A7000EF92FF920F931F93CF93DF93000080E16B
:107A80008093C4001092C50088E18093C10086E015
:107A90008093C2005098589A259A81E00E94143D24
:107AA00024E1F22E9EE1E92E85E9D82E0FE0C02ECA
:107AB00010E1B12EAA24A394B1E49B2EA6E58A2E50
:107AC000F2E57F2EE0E26E2E79E4572E63E5462E36
:107AD00050E5352E0E94763C8033B1F18133B9F107
:107AE000803409F46FC0813409F476C0823409F41B
:107AF00085C0853409F488C0803531F1823521F1A3
:107B0000813511F1853509F485C0863509F48DC0BC
:107B1000843609F496C0843709F403C1853709F423
:107B200072C1863709F466C0809103018F5F80932C
:107B30000301853079F6E0910401F0910501099582
:107B40000E94763C803351F60E94F33CC3CF0E94E2
:107B5000763C803249F78091C00085FFFCCFF092DF
:107B6000C6008091C00085FFFCCF9092C600809136
:107B7000C00085FFFCCF8092C6008091C00085FFC9
:107B8000FCCF7092C6008091C00085FFFCCF609250
:107B9000C6008091C00085FFFCCF5092C600809146
:107BA000C00085FFFCCF4092C6008091C00085FFD9
:107BB000FCCF3092C6008091C00085FFFCCFB09210
:107BC000C60088CF0E94763C863808F4BDCF0E945C
:107BD000763C0E94F33C7ECF0E94763C803809F4CC
:107BE0009CC0813809F40BC1823809F43CC1883942
:107BF00009F48FC080E00E94C73C6CCF84E10E94F2
:107C0000BD3C0E94F33C66CF85E00E94BD3C0E94D3
:107C1000F33C60CF0E94763C809306010E94763C44
:107C2000809307010E94F33C55CF0E94763C80333D
:107C300009F41DC183E00E94BD3C80E00E94C73C66
:107C400049CF0E94763C809309020E94763C809343
:107C5000080280910C028E7F80930C020E94763C79
:107C6000853409F415C18091080290910902892B8D
:107C700089F000E010E00E94763CF801E85FFE4FDA
:107C800080830F5F1F4F80910802909109020817AF
:107C9000190788F30E94763C803209F045CF809125
:107CA0000C0280FF01C16091060170910701660F0F
:107CB000771F7093070160930601A0910802B091AD
:107CC00009021097C9F0E8E0F1E09B01AD014E0F09
:107CD0005F1FF999FECF32BD21BD819180BDFA9A17
:107CE000F99A2F5F3F4FE417F50799F76A0F7B1F4B
:107CF00070930701609306018091C00085FFFCCF5F
:107D0000F092C6008091C00085FFFCCFB092C60003
:107D1000E1CE83E00E94C73CDDCE82E00E94C73CFA
:107D2000D9CE0E94763C809309020E94763C8093D3
:107D300008028091060190910701880F991F909386
:107D40000701809306010E94763C853409F4A6C0A1
:107D500080910C028E7F80930C020E94763C8032D0
:107D600009F0B8CE8091C00085FFFCCFF092C6002C
:107D7000609108027091090261157105B9F140E046
:107D800050E080910C02A82FA170B82FB27011C0E2
:107D9000BB2309F45CC0E0910601F0910701319624
:107DA000F0930701E09306014F5F5F4F46175707B7
:107DB000E8F4AA2369F3F999FECF209106013091E6
:107DC000070132BD21BDF89A90B58091C00085FFB2
:107DD000FCCF9093C6002F5F3F4F30930701209355
:107DE00006014F5F5F4F4617570718F38091C00099
:107DF00085FDE5CE8091C00085FFF8CFE0CE81E023
:107E00000E94C73C67CE0E94763C803209F08CCE3F
:107E10008091C00085FFFCCFF092C6008091C00029
:107E200085FFFCCFE092C6008091C00085FFFCCFAB
:107E3000D092C6008091C00085FFFCCFC092C600E2
:107E40008091C00085FFFCCFB092C60043CEE09188
:107E50000601F091070194918091C00085FFFCCF4D
:107E60009093C6009CCF80E10E94C73C33CE0E9415
:107E7000763C0E94763C182F0E94763C112309F430
:107E800083C0113009F484C08FE00E94C73C22CE29
:107E900080910C02816080930C02E5CE80910C02EF
:107EA000816080930C0259CF809107018823880F4D
:107EB000880B8A2180930B02809106019091070123
:107EC000880F991F90930701809306018091080203
:107ED00080FF09C080910802909109020196909359
:107EE000090280930802F894F999FECF1127E091D6
:107EF0000601F0910701C8E0D1E08091080290915D
:107F00000902103091F40091570001700130D9F34B
:107F100003E000935700E89500915700017001308D
:107F2000D9F301E100935700E89509901990009169
:107F3000570001700130D9F301E000935700E89534
:107F40001395103498F011270091570001700130FB
:107F5000D9F305E000935700E895009157000170B0
:107F60000130D9F301E100935700E895329602976A
:107F700009F0C7CF103011F00296E5CF112480919F
:107F8000C00085FFB9CEBCCE8EE10E94C73CA2CD19
:0C7F900085E90E94C73C9ECDF894FFCF0D
:027F9C00800063
:040000030000780081
:00000001FF